:100000000C9410010C942D010C942D010C942D01D5
:100010000C942D010C942D010C942D010C942D01A8
:100020000C942D010C942D010C9435020C94740247
:100030000C942D010C942D010C942D010C942D0188
:100040000C942D010C942D010C942D010C942D0178
:100050000C942D010C942D010C942D010C942D0168
:100060000C942D010C942D010C942D010C942D0158
:100070000C942D010C942D010C942D010C942D0148
:100080000C942D010C942D010C942D010C942D0138
:100090000C942D010C942D010C942D010C942D0128
:1000A0000C942D010C942D010C942D0100010000E5
:1000B000F300120002000005013B00220000400195
:1000C0004C00210000170109002201008C011500DD
:1000D00021010030010900030000A101040103090E
:1000E00004CB010A02030904F50112000001C10654
:1000F00001C1261201000200000020C016530400B6
:10010000010102000109023B00020100C0320904A2
:1001100000000103010100092111010001224C002E
:100120000705830308000109040100010300000022
:100130000921110100012215000705840320000197
:1001400005010904A101150025017501950C05099A
:100150001901290C810295017508810315002507F5
:100160003500463B01750495016514050109398187
:100170004205010901A100150026FF00750895043C
:1001800009300931093209358102C0C00631FF0941
:1001900074A1537508150026FF009520097581028A
:1001A000C00403090400000000000000000000007B
:1001B000000000000000000000000000000000003F
:1001C00000000000000000000000000A036E00753F
:1001D000006C006C00000000000000000000000047
:1001E000000000000000000000000000000000000F
:1001F0000000000000120355005300420020007868
:1002000000630076007200000000000000000000A3
:1002100000000000000000000000000000000000DE
:1002200011241FBECFEFDAE0DEBFCDBF11E0A0E0AA
:10023000B1E0EAEDFBE002C005900D92AA30B107F3
:10024000D9F711E0AAE0B1E001C01D92AD30B107CD
:10025000E1F70E94AB050C94EB050C9400001F9392
:10026000CF93DF93EC01FE0121961491112349F005
:100270001A3019F48DE00E94D801812F0E94D80114
:10028000F2CFDF91CF911F9108958A3010F490E35F
:1002900001C097E3890F0E94D8010895CF93C82F1A
:1002A00082958F700E9445018C2F8F700E944501AE
:1002B000CF910895CF93C82F892F0E944E018C2F84
:1002C0000E944E01CF91089589EA8093640089E1EC
:1002D0008093650085B7806885BF85B7806885BFD6
:1002E00008958091E80080FFFCCF089581E080931D
:1002F000D70080EA8093D80082E189BD89B580FF6C
:10030000FDCF80E98093D8001092E00010920B019D
:100310008CE08093E2007894089580910B01089519
:10032000FC0180910B01882309F43EC02FB7F8949B
:1003300083E08093E9008091E4008E5C93E030914B
:10034000E80035FD0EC02FBF20910B01222361F183
:100350002091E400281751F12FB7F8949093E90009
:10036000EECF81818093F100828182958F7080939E
:10037000F100828190E034E0880F991F3A95E1F70F
:100380008093F10083818093F10084818093F10058
:1003900085818093F10086818093F1008AE38093C8
:1003A000E8002FBF80E008958FEF08958FEF089544
:1003B00090910B01992309F43DC09FB7F89424E074
:1003C0002093E90020910C01222341F02091E800C4
:1003D00025FD02C09FBF2EC010920C012091E400A9
:1003E0002C5F34E04091E80045FD12C09FBF909122
:1003F000E400921721F481E080930C011BC09091DE
:100400000B019923C9F09FB7F8943093E900EACF24
:100410008093F1008091E80085FD06C08AE3809317
:10042000E80010920A0103C082E080930A019FBF96
:1004300080E008958FEF08958FEF08958FB7F894B7
:1004400090910A01992379F094E09093E90002C019
:100450001092F1009091E80095FDFACF9AE3909305
:10046000E80010920A018FBF08951F920F920FB6F5
:100470000F9211248F939F938091E1001092E100DD
:1004800083FF0FC01092E90091E09093EB0010926F
:10049000EC0092E29093ED0098E09093F0001092BF
:1004A0000B0182FF1AC080910B018823B1F080916B
:1004B0000A01882391F0815080930A01882369F40E
:1004C00084E08093E90002C01092F1008091E8007E
:1004D00085FDFACF8AE38093E8009F918F910F907A
:1004E0000FBE0F901F9018951F920F920FB60F928C
:1004F0001124EF92FF920F931F932F933F934F93EB
:100500005F936F937F938F939F93AF93BF93EF937B
:10051000FF93CF93DF930F92CDB7DEB71092E90030
:100520008091E80083FF3BC12091F1003091F10000
:100530000091F10010E04091F100942F80E0082B31
:10054000192BE090F100FF244091F100942F80E0FE
:10055000E82AF92A6091F10070E04091F100942FAF
:1005600080E0682B792B82EF8093E800363009F029
:100570004EC049E02CEA30E0F90185919491801752
:10058000910739F4F9013296859194918E159F0562
:1005900029F0295F3F4F415079F701C1F9013496A5
:1005A00045915491CA012A5F3F4FF90124916F3F51
:1005B000710519F010F06FEF70E0621708F4262F44
:1005C000AEEF4091E80050E0BA01657070706115BF
:1005D0007105B9F342FDE6C0322F213208F030E256
:1005E000AC01632F07C0FA014F5F5F4FE491E093C6
:1005F000F10061506623B9F7830F911D231BA0936F
:10060000E8002223F1F6303209F0CCC0DACF3530E1
:1006100049F48EEF8093E8000E9471010068009316
:10062000E300C0C0393049F5222309F06CC00093C3
:100630000B018EEF8093E80041E08BEE90E001C06B
:10064000C9014093E9009C012F5F3F4FFC01549189
:100650005093EB00552361F0F90124912093EC00B5
:100660009C012D5F3F4F0296FC0184918093ED0029
:100670004F5F453029F78EE141C0383041F42038D2
:1006800009F041C00E94710180910B0154C03323D5
:10069000A1F429830E9471012981223851F4E0924A
:1006A000E9009091EB0081E095FF80E01092E90075
:1006B00001C080E08093F10035C0313011F033305B
:1006C00011F5223001F501151105E9F44E2D4F7792
:1006D000842F81508430B8F48EEF8093E8004093EB
:1006E000E900333009F45BC089E18093EB0081E0DD
:1006F00090E002C0880F991F4A95E2F78093EA00C4
:100700001092EA004FC0E114F10411F5213AB1F45E
:10071000313059F40E9471011092F1001092F100F1
:100720001092F1001092F1000FC03330C1F50E9419
:100730007101809108018093F10006C0213279F5A2
:100740003B3069F5009308018EEF8093E8002AC0E2
:10075000F1E0EF16F10419F5313009F5213AF9F419
:100760004EEF8091E80090E09C01257030702115DB
:100770003105B9F382FD16C0862F613208F080E2A0
:10078000982F03C01092F10091509923D9F7681B5C
:100790004093E800662329F7803221F4E2CF81E21A
:1007A0008093EB000F90DF91CF91FF91EF91BF917C
:1007B000AF919F918F917F916F915F914F913F91F9
:1007C0002F911F910F91FF90EF900F900FBE0F9000
:1007D0001F90189584B1876084B984E58CBD81E051
:1007E0008DBD08956EBD0DB407FEFDCF8EB5089585
:1007F0000F931F93CF93DF93EC01289860680E94BA
:10080000F203CE0160E00E94F203182F00E0CE0157
:1008100060E00E94F203289A90E0802B912BDF91F8
:10082000CF911F910F91089560E30E94F8038074A7
:100830000895CF93DF93EC01289860680E94F2033B
:10084000CE0160E00E94F203289ADF91CF910895D3
:100850000F931F93CF93DF9300D0CDB7DEB78C01FA
:1008600028984A8359830E94F203C8015981652F51
:100870000E94F203C8014A81642F0E94F203289A61
:100880000F900F90DF91CF911F910F910895AF922C
:10089000BF92CF92DF92EF92FF920F931F93CF936D
:1008A000DF930F92CDB7DEB78C01F62EE72EFC0159
:1008B000408150E0406867E00E94280420E2C22E98
:1008C0002EE4D22EC8010E941404882381F50894D6
:1008D000C108D108C114D10451F1F4CFC80164E3B7
:1008E0000E941904282F2F73CF2CDE2CEE24FF2416
:1008F000A22EBB240CC0C80162E329830E94190404
:10090000F60181936F010894E11CF11C2981EA141E
:10091000FB048CF3822F0F90DF91CF911F910F91E9
:10092000FF90EF90DF90CF90BF90AF900895C801F7
:100930000E941404882391F620E0ECCFCF92DF923E
:10094000EF92FF920F931F93CF93DF930F92CDB748
:10095000DEB76C018A01790169830E94EA0369812B
:10096000D6016C938FE79AE1A6E081509040A040B9
:10097000E1F700C00000279A2F989AE69A95F1F7C0
:1009800000C02798AFE3BFE11197F1F700C0000066
:10099000C6016BE140E052E40E942804C60160E019
:1009A00041EE5FE60E942804C60162E047E155E59A
:1009B0000E942804C60164E049EC5CE90E94280416
:1009C000C60165E047E456E60E942804F60140812E
:1009D00050E04F7750704E295F29C60167E00E94B2
:1009E0002804C60168E040E95CE60E942804C601CC
:1009F00069E040E259E10E942804C6016BE048E04A
:100A000050E00E942804C6016DE040E858E40E94CE
:100A10002804C60166E14FEF50E00E942804C60199
:100A200067E147E050E80E942804C60168E147E614
:100A300050E00E942804C6016AE140EE59E10E949C
:100A40002804C60161E240EF53E60E942804C60173
:100A500062E240E050E30E942804C60163E241E8FC
:100A600053E00E942804D8014D915C91C60164E2D4
:100A70000E942804F80142815381C60165E20E9468
:100A80002804D80114964D915C911597C60166E231
:100A90000E942804F80146815781C60167E20E943E
:100AA0002804C60168E247E450E20E942804C60117
:100AB00069E240E058EF0E942804C6016AE24FEF65
:100AC0005DEF0E9428040F90DF91CF911F910F914D
:100AD000FF90EF90DF90CF9008950F931F93CF93E7
:100AE000DF930F92CDB7DEB78C01289849830E941F
:100AF000F203C8014981642F0E94F203289A0F90E3
:100B0000DF91CF911F910F910895EF92FF920F9374
:100B10001F93CF93DF938C01F62EE42EC62FD72F91
:100B200005C04991C80162E30E946D058C2F8F19A1
:100B30008E15B8F3F801408150E04F775070516046
:100B4000C80167E00E942804DF91CF911F910F91A7
:100B5000FF90EF900895CF93DF93CDB7DEB7C054E9
:100B6000D0400FB6F894DEBF0FBECDBFFE01329667
:100B70008FE3DF011D928A95E9F780E88093610099
:100B800081E080936100CE0101966AE040E051E08F
:100B900020E830E00E949E040E9464010E947601D9
:100BA0000E948D018823E1F38FEF99E6A8E181503F
:100BB0009040A040E1F700C00000CE010196BE01C8
:100BC0006E5F7F4F0E9447048823B9F3CE010296DF
:0A0BD0000E949001F2CFF894FFCFCD
:0A0BDA006F7061746F7473650100A1
:00000001FF
