:100000000C94F1000C940E010C940E010C940E0152
:100010000C940E010C940E010C940E010C940E0124
:100020000C940E010C940E010C9476020C94DC02DC
:100030000C940E010C940E010C940E010C940E0104
:100040000C940E010C940E010C940E010C940E01F4
:100050000C940E010C940E010C940E010C940E01E4
:100060000C940E010C940E010C940E010C940E01D4
:100070000C940E010C943A010C940E010C940E0198
:100080000C940E010C940E010C940E010C940E01B4
:100090000C940E010C940E010C940E010C940E01A4
:1000A0000C940E010C940E010C940E010001000042
:1000B000E3001200020000F50022002200001701F8
:1000C0004C00210000070109000300006301040146
:1000D0000309048D010A02030904B7011800000195
:1000E000C106001201000200000020C01602040038
:1000F000010102000109022200010100C0FA090405
:1001000000000103010100092111010001224C003E
:100110000705830307000105010904A10115002556
:10012000017501950C05091901290C8102950175CC
:10013000088103150025073500463B01750495012C
:10014000651405010939814205010901A100150065
:1001500026FF0075089504093009310932093581F7
:1001600002C0C004030904000000000000000000F9
:10017000000000000000000000000000000000007F
:10018000000000000000000000000000000A036EF4
:100190000075006C006C0000000000000000000012
:1001A000000000000000000000000000000000004F
:1001B000000000000000001803550053004200201A
:1001C00000470061006D0065007000610064000080
:1001D000000000000000000000000000000000001F
:1001E000000011241FBECFEFDAE0DEBFCDBF11E06B
:1001F000A0E0B1E0E8E8FCE002C005900D92AA3072
:10020000B107D9F711E0AAE0B1E001C01D92AD300D
:10021000B107E1F70E94CD050C9442060C94000052
:1002200080E880937A000895EAE7F0E080818F7794
:1002300080830895806680937C0010927B0083E029
:1002400083BFEAE7F0E080818864808388958091AD
:100250007900089580E00E941A01089581E00E94CB
:100260001A01089584E00E941A01089585E00E9411
:100270001A0108951F920F920FB60F92112413BE08
:100280000F900FBE0F901F90189583E380937E0010
:1002900085B1806F85B988B1806C88B98FE78BB9DB
:1002A000729A81B3806C81BB85B7806885BF85B742
:1002B000806885BF0895CF93DF93EC0187E0888342
:1002C00080910A0189831A82379902C081608983EB
:1002D000629903C08981826089837F9903C0898183
:1002E000846089837E9903C0898188608983499964
:1002F00003C08981806189831E9903C089818062DE
:1003000089834A9903C0898180648983369903C0AF
:100310008981806889831C9902C080E18A831D9944
:1003200003C08A8180628A831F9903C08A818064A6
:100330008A8389B180FD03C08A8180688A834B9952
:1003400003C08A8181608A834D9903C08A8182605B
:100350008A834C9903C08A8184608A834E9903C042
:100360008A8188608A832A81822F90E08F709070C2
:100370008430910531F18530910554F48230910536
:10038000D1F083309105D4F48130910549F511C045
:1003900088309105E1F08930910524F4863091058B
:1003A000F9F412C089309105A9F08C309105C1F49F
:1003B00014C0207F16C0207F226013C0207F2160E0
:1003C00010C0207F24600DC0207F23600AC0207FE2
:1003D000266007C0207F276004C0207F256001C001
:1003E0002F602A830E9432018B830E943601809500
:1003F0008C830E942A018D830E942E0180958E831A
:10040000DF91CF91089588EA8093640089E1809319
:10041000650008958091E80080FFFCCF089581E099
:100420008093D70080EA8093D80082E189BD89B5A6
:1004300080FFFDCF81E98093D8001092E0001092F8
:100440000C0188E08093E2008091DA008E7F809337
:10045000DA007894089580910C010895FC01809150
:100460000C01882309F43EC02FB7F89483E08093F1
:10047000E9008091E4008E5C93E03091E80035FD66
:100480000EC02FBF20910C01222361F12091E400C6
:10049000281751F12FB7F8949093E900EECF81819E
:1004A0008093F100828182958F708093F100828128
:1004B00090E034E0880F991F3A95E1F78093F100BE
:1004C00083818093F10084818093F1008581809302
:1004D000F10086818093F1008AE38093E8002FBFCA
:1004E00080E008958FEF08958FEF08951F920F9287
:1004F0000FB60F9211242F933F934F935F936F93F7
:100500007F938F939F93AF93BF93EF93FF938091CC
:10051000E1001092E10083FF0FC01092E90081E03A
:100520008093EB001092EC0082E28093ED0088E073
:100530008093F00010920C018091DA0080FF2BC0B4
:100540008091D90080FF1BC00E940F028FEF99E6B7
:10055000A8E181509040A040E1F700C000008091E8
:100560000C01882349F48091D80090EA8927809370
:10057000D80089B58D7F89BD6E9A769A07C08DB1F6
:1005800090E489278DB98EB189278EB98091DA00E0
:100590008E7F8093DA00FF91EF91BF91AF919F9191
:1005A0008F917F916F915F914F913F912F910F901C
:1005B0000FBE0F901F9018951F920F920FB60F92BB
:1005C0001124EF92FF920F931F932F933F934F931A
:1005D0005F936F937F938F939F93AF93BF93EF93AB
:1005E000FF93CF93DF930F92CDB7DEB71092E90060
:1005F0008091E80083FF13C12091F1003091F10058
:10060000E090F100FF244091F100942F80E0E82A6F
:10061000F92A0091F10010E04091F100942F80E060
:10062000082B192B6091F100A091F10082EF8093CB
:10063000E800363009F052C047E02CEA30E0F9011A
:10064000859194918E159F0539F4F9013296859123
:1006500094918017910729F0295F3F4F415079F716
:10066000DEC0F901349685919491AC012A5F3F4F29
:10067000F901249170E09A2F80E0682B792B6F3F6D
:10068000710519F010F06FEF70E0621708F4262F73
:10069000AEEF8091E80090E0BC016570707061156C
:1006A0007105B9F382FDBEC0322F213208F030E26D
:1006B000CA01632F06C0FC010196E491E093F100AA
:1006C00061506623C1F7430F511D231BA093E8001F
:1006D0002223F9F6303209F0A5C0DBCF353051F4D2
:1006E0008EEF8093E8000E940A028E2D806880932E
:1006F000E30098C0393049F5222309F06BC0E0923D
:100700000C018EEF8093E80041E08DED90E001C098
:10071000C9014093E9009C012F5F3F4FFC015491B8
:100720005093EB00552361F0F90124912093EC00E4
:100730009C012D5F3F4F0296FC0184918093ED0058
:100740004F5F453029F78EE140C0383041F4203802
:1007500009F040C00E940A0280910C0153C033236B
:10076000A1F429830E940A022981223851F40093BE
:10077000E9009091EB0081E095FF80E01092E900A4
:1007800001C080E08093F10034C0313011F033308B
:1007900009F52230F9F4E114F104E1F4402F4F7728
:1007A000842F81508430B0F48EEF8093E800409322
:1007B000E9003330A1F189E18093EB0081E090E022
:1007C00002C0880F991F4A95E2F78093EA001092C1
:1007D000EA0028C00115110511F5213AB1F43130B4
:1007E00059F40E940A021092F1001092F100109246
:1007F000F1001092F1000FC0333089F40E940A0218
:10080000809108018093F10006C0213241F43B3011
:1008100031F4E09208018EEF8093E80003C081E29A
:100820008093EB000F90DF91CF91FF91EF91BF91FB
:10083000AF919F918F917F916F915F914F913F9178
:100840002F911F910F91FF90EF900F900FBE0F907F
:100850001F90189584B1876084B984E58CBD81E0D0
:100860008DBD08956EBD0DB407FEFDCF8EB5089504
:100870000F931F93CF93DF93EC01289860680E9439
:100880003204CE0160E00E943204182F00E0CE0155
:1008900060E00E943204289A90E0802B912BDF9137
:1008A000CF911F910F910895CF93DF93EC0128987A
:1008B00060680E943204289ACE0160E00E943204EF
:1008C000DF91CF91089560E30E94540480780895E9
:1008D0000F931F93CF93DF9300D0CDB7DEB78C017A
:1008E00028984A8359830E943204C8015981652F90
:1008F0000E943204C8014A81642F0E943204289A5F
:100900000F900F90DF91CF911F910F910895EF926B
:10091000FF920F931F93CF93DF938C017B01DC0138
:100920004C9150E0406867E00E9468048FEF90E7C8
:10093000A2E081509040A040E1F700C00000C80153
:100940000E9463048823D1F0C80162E30E9454042A
:10095000D7018C93C1E0D0E009C0C80162E30E94D6
:100960005404F701EC0FFD1F80832196F70180816D
:1009700090E0C817D9078CF38FEF01C080E0DF91BA
:10098000CF911F910F91FF90EF900895CF92DF923A
:10099000EF92FF920F931F93CF93DF930F92CDB7F8
:1009A000DEB76C018A01790169830E942A0469819A
:1009B000F60160838FE39CE90197F1F700C0000026
:1009C000579A5F989AE19A95F1F700C05798EFE629
:1009D000F7E13197F1F700C00000C6016BE140E09C
:1009E00052E40E946804C60160E041EE5FE60E94A6
:1009F0006804C60162E047E155E50E946804C6014B
:100A000064E049EC5CE90E946804C60165E047E4E3
:100A100056E60E946804F601408150E04F7750701E
:100A20004E295F29C60167E00E946804C60168E09C
:100A300040E95CE60E946804C60169E040E259E1D1
:100A40000E946804C6016BE048E050E00E94680420
:100A5000C6016DE040E858E40E946804C60166E102
:100A60004FEF50E00E946804C60167E147E050E89C
:100A70000E946804C60168E147E650E00E946804ED
:100A8000C6016AE140EE59E10E946804C60161E2D4
:100A900040EF53E60E946804C60162E240E050E382
:100AA0000E946804C60163E241E853E00E946804C2
:100AB000F80140815181C60164E20E946804F80196
:100AC00042815381C60165E20E946804F8014481B5
:100AD0005581C60166E20E946804F801468157818B
:100AE000C60167E20E946804C60168E247E450E27A
:100AF0000E946804C60169E240E058EB0E94680465
:100B0000C6016AE24FEF5DEF0E9468040F90DF912B
:100B1000CF911F910F91FF90EF90DF90CF900895AC
:100B20000F931F93CF93DF930F92CDB7DEB78C0156
:100B3000289849830E943204C8014981642F0E9489
:100B40003204289A0F90DF91CF911F910F91089551
:100B5000FF920F931F93CF93DF93EC018B01FF2440
:100B600009C0F801EF0DF11DCE0162E340810E9442
:100B70009005F394F8018081F81698F3488150E0CD
:100B80004F7750705160CE0167E00E946804DF919A
:100B9000CF911F910F91FF900895CF93DF93CDB721
:100BA000DEB760970FB6F894DEBF0FBECDBFFE0173
:100BB000329687E0DF011D928A95E9F7DE011996EA
:100BC000E0E0F1E088E001900D928150E1F780E8EB
:100BD0008093610081E0809361000E94100181E1B7
:100BE0008093D8008FE798E3A1E081509040A04027
:100BF000E1F700C000008091D90080FF18C00E947A
:100C00000F028FEF99E6A8E181509040A040E1F7F4
:100C100000C000000E942B02882349F48091D80074
:100C200090EA89278093D80089B58D7F89BD0E947D
:100C300045010E9403028E010F5F1F4FC8016EE144
:100C4000AE01475F5F4F20E031E00E94C604F02E06
:100C5000012F8F2D902F66E00E94380490930B0196
:100C600080930A01CE0102960E945B01CE0102969A
:100C70000E942E028F2D902FBE016E5F7F4F0E942B
:080C8000A805E7CFF894FFCFAF
:0A0C88006F7061746F7473650100F2
:00000001FF
