:100000000C9410010C942D010C942D010C942D01D5
:100010000C942D010C942D010C942D010C942D01A8
:100020000C942D010C942D010C942F030C94C203FD
:100030000C942D010C942D010C942D010C942D0188
:100040000C942D010C942D010C942D010C942D0178
:100050000C942D010C942D010C942D010C942D0168
:100060000C942D010C942D010C942D010C942D0158
:100070000C942D010C9459010C942D010C942D011C
:100080000C942D010C942D010C942D010C942D0138
:100090000C942D010C942D010C942D010C942D0128
:1000A0000C942D010C942D010C942D0100010000E5
:1000B000F300120002000005013B00220000400195
:1000C0004C00210000170109002201008C011500DD
:1000D00021010030010900030000A101040103090E
:1000E00004CB010A02030904F50118000001C1064E
:1000F00001C1261201000200000020C01604040005
:10010000010102000109023B00020100C0320904A2
:1001100000000103010100092111010001224C002E
:100120000705830308000109040100010300000022
:100130000921110100012215000705840320000197
:1001400005010904A101150025017501950C05099A
:100150001901290C810295017508810315002507F5
:100160003500463B01750495016514050109398187
:100170004205010901A100150026FF00750895043C
:1001800009300931093209358102C0C00631FF0941
:1001900074A1537508150026FF009520097581028A
:1001A000C00403090400000000000000000000007B
:1001B000000000000000000000000000000000003F
:1001C00000000000000000000000000A036E00753F
:1001D000006C006C00000000000000000000000047
:1001E000000000000000000000000000000000000F
:1001F0000000000000180355005300420020004793
:100200000061006D00650070006100640000000086
:1002100000000000000000000000000000000000DE
:1002200011241FBECFEFDAE0DEBFCDBF11E0A0E0AA
:10023000B1E0E0E9FEE002C005900D92AA30B107FE
:10024000D9F711E0AAE0B1E001C01D92AF30B107CB
:10025000E1F70E94F9060C9446070C94000080E830
:1002600080937A000895EAE7F0E080818F778083B9
:100270000895806680937C0010927B0083E083BFAA
:10028000EAE7F0E080818864808388958091790036
:10029000089580E00E943901089581E00E943901AB
:1002A000089584E00E943901089585E00E94390193
:1002B00008951F920F920FB60F92112413BE0F9044
:1002C0000FBE0F901F9018951F93CF93DF93EC01F3
:1002D000FE0121961491112349F01A3019F48DE092
:1002E0000E94D202812F0E94D202F2CFDF91CF91E1
:1002F0001F9108958A3010F490E301C097E3890FAD
:100300000E94D2020895CF93C82F82958F700E94C9
:100310007A018C2F8F700E947A01CF910895CF932C
:10032000C82F892F0E9483018C2F0E948301CF91B7
:10033000089583E380937E0085B1806F85B988B18D
:10034000806C88B98FE78BB9729A81B3806C81BB5E
:100350006E9A0895CF93DF93EC0186E0888319822B
:100360001A82379902C081E08983629903C089812A
:10037000826089837F9903C08981846089837E99A3
:1003800003C0898188608983499903C0898180611C
:1003900089831E9903C08981806289834A9903C039
:1003A000898180648983369903C0898180688983C3
:1003B0001C9902C080E18A831D9903C08A818062F2
:1003C0008A831F9903C08A8180648A8389B180FDF2
:1003D00003C08A8180688A834B9903C08A818160C7
:1003E0008A834D9903C08A8182608A834C9903C0B5
:1003F0008A8184608A834E9903C08A8188608A8357
:100400002A81822F90E08F7090708430910531F1B5
:100410008530910554F482309105D1F083309105F7
:10042000D4F48130910549F511C088309105E1F08F
:100430008930910524F486309105F9F412C0893091
:100440009105A9F08C309105C1F414C0207F16C02D
:10045000207F226013C0207F216010C0207F246095
:100460000DC0207F23600AC0207F266007C0207F48
:10047000276004C0207F256001C02F602A830E946E
:1004800051018B830E94550180958C830E94490104
:100490008D830E944D0180958E83DF91CF910895C9
:1004A00088EA8093640089E18093650085B780685D
:1004B00085BF85B7806885BF089581E18093D800A6
:1004C0008FE798E3A1E081509040A040E1F700C0A1
:1004D0000000789408958091E80080FFFCCF089593
:1004E00081E08093D70081EA8093D80082E189BDC2
:1004F00089B580FFFDCF81E98093D8001092E0009C
:1005000010920D018CE08093E20078940895809120
:100510000D010895FC0180910D01882309F43EC06E
:100520002FB7F89483E08093E9008091E4008E5C1B
:1005300093E03091E80035FD0EC02FBF20910D01F2
:10054000222361F12091E400281751F12FB7F8948C
:100550009093E900EECF81818093F10082818295B2
:100560008F708093F100828190E034E0880F991FB2
:100570003A95E1F78093F10083818093F1008481C3
:100580008093F10085818093F10086818093F10052
:100590008AE38093E8002FBF80E008958FEF0895ED
:1005A0008FEF089590910D01992309F43DC09FB7F5
:1005B000F89424E02093E90020910E01222341F0D9
:1005C0002091E80025FD02C09FBF2EC010920E01B1
:1005D0002091E4002C5F34E04091E80045FD12C01A
:1005E0009FBF9091E400921721F481E080930E0167
:1005F0001BC090910D019923C9F09FB7F8943093D7
:10060000E900EACF8093F1008091E80085FD06C003
:100610008AE38093E80010920C0103C082E080938B
:100620000C019FBF80E008958FEF08958FEF08952C
:100630008FB7F89490910C01992379F094E09093FE
:10064000E90002C01092F1009091E80095FDFACF08
:100650009AE39093E80010920C018FBF08951F92C7
:100660000F920FB60F9211242F933F934F935F93E6
:100670006F937F938F939F93AF93BF93EF93FF936A
:100680008091E1001092E10083FF0FC01092E90019
:1006900091E09093EB001092EC0092E29093ED00C9
:1006A00098E09093F00010920D0182FF1AC08091A3
:1006B0000D018823B1F080910C01882391F08150C5
:1006C00080930C01882369F484E08093E90002C0E0
:1006D0001092F1008091E80085FDFACF8AE38093C3
:1006E000E8008091DA0080FF3CC08091DA008E7FC4
:1006F0008093DA0076986E988FE79AE1A6E08150B1
:100700009040A040E1F700C000008091D90080FF38
:1007100023C080910D01882389F40E9470028FEF1D
:1007200099E6A8E181509040A040E1F700C00000A8
:10073000379904C080910D018823E1F380910D0168
:10074000882369F48091E400882311F46E9A7698E6
:1007500081EA8093D80005C081EA8093D8006E9A20
:100760007698FF91EF91BF91AF919F918F917F917B
:100770006F915F914F913F912F910F900FBE0F900E
:100780001F9018951F920F920FB60F921124EF929F
:10079000FF920F931F932F933F934F935F936F930A
:1007A0007F938F939F93AF93BF93EF93FF93CF93D9
:1007B000DF930F92CDB7DEB71092E9008091E80089
:1007C00083FF3BC12091F1003091F1000091F100D5
:1007D00010E04091F100942F80E0082B192BE0905D
:1007E000F100FF244091F100942F80E0E82AF92ADB
:1007F0006091F10070E04091F100942F80E0682B4F
:10080000792B82EF8093E800363009F04EC049E042
:100810002CEA30E0F901859194918017910739F421
:10082000F9013296859194918E159F0529F0295FE3
:100830003F4F415079F701C1F901349645915491E8
:10084000CA012A5F3F4FF90124916F3F710519F0EA
:1008500010F06FEF70E0621708F4262FAEEF4091B2
:10086000E80050E0BA016570707061157105B9F368
:1008700042FDE6C0322F213208F030E2AC01632F96
:1008800007C0FA014F5F5F4FE491E093F1006150C0
:100890006623B9F7830F911D231BA093E800222341
:1008A000F1F6303209F0CCC0DACF353049F48EEFB2
:1008B0008093E8000E946B0200680093E300C0C0D0
:1008C000393049F5222309F06CC000930D018EEFF9
:1008D0008093E80041E08BEE90E001C0C9014093B5
:1008E000E9009C012F5F3F4FFC0154915093EB00B6
:1008F000552361F0F90124912093EC009C012D5FB8
:100900003F4F0296FC0184918093ED004F5F45308C
:1009100029F78EE141C0383041F4203809F041C058
:100920000E946B0280910D0154C03323A1F42983EE
:100930000E946B022981223851F4E092E9009091E3
:10094000EB0081E095FF80E01092E90001C080E0BB
:100950008093F10035C0313011F0333011F5223081
:1009600001F501151105E9F44E2D4F77842F8150C3
:100970008430B8F48EEF8093E8004093E900333080
:1009800009F45BC089E18093EB0081E090E002C054
:10099000880F991F4A95E2F78093EA001092EA00C7
:1009A0004FC0E114F10411F5213AB1F4313059F49A
:1009B0000E946B021092F1001092F1001092F1006F
:1009C0001092F1000FC03330C1F50E946B0280918C
:1009D00008018093F10006C0213279F53B3069F5BA
:1009E000009308018EEF8093E8002AC0F1E0EF1633
:1009F000F10419F5313009F5213AF9F44EEF8091FF
:100A0000E80090E09C012570307021153105B9F3A4
:100A100082FD16C0862F613208F080E2982F03C055
:100A20001092F10091509923D9F7681B4093E80088
:100A3000662329F7803221F4E2CF81E28093EB0034
:100A40000F90DF91CF91FF91EF91BF91AF919F9167
:100A50008F917F916F915F914F913F912F911F9156
:100A60000F91FF90EF900F900FBE0F901F90189571
:100A700084B1876084B984E58CBD81E08DBD089523
:100A80006EBD0DB407FEFDCF8EB508950F931F9375
:100A9000CF93DF93EC01289860680E944005CE0157
:100AA00060E00E944005182F00E0CE0160E00E9447
:100AB0004005289A90E0802B912BDF91CF911F91D8
:100AC0000F91089560E30E94460580740895CF93C6
:100AD000DF93EC01289860680E944005CE0160E039
:100AE0000E944005289ADF91CF9108950F931F939C
:100AF000CF93DF9300D0CDB7DEB78C0128984A831F
:100B000059830E944005C8015981652F0E94400504
:100B1000C8014A81642F0E944005289A0F900F90C7
:100B2000DF91CF911F910F910895AF92BF92CF9215
:100B3000DF92EF92FF920F931F93CF93DF930F9269
:100B4000CDB7DEB78C01F62EE72EFC01408150E0D8
:100B5000406867E00E94760520E2C22E2EE4D22E85
:100B6000C8010E946205882381F50894C108D10854
:100B7000C114D10451F1F4CFC80164E30E946705A8
:100B8000282F2F73CF2CDE2CEE24FF24A22EBB2483
:100B90000CC0C80162E329830E946705F6018193B6
:100BA0006F010894E11CF11C2981EA14FB048CF309
:100BB000822F0F90DF91CF911F910F91FF90EF90B7
:100BC000DF90CF90BF90AF900895C8010E9462055A
:100BD000882391F620E0ECCFCF92DF92EF92FF9244
:100BE0000F931F93CF93DF930F92CDB7DEB76C01B6
:100BF0008A01790169830E9438056981D6016C9365
:100C00008FE79AE1A6E081509040A040E1F700C054
:100C10000000579A5F989AE69A95F1F700C05798A6
:100C2000AFE3BFE11197F1F700C00000C6016BE12F
:100C300040E052E40E947605C60160E041EE5FE6C6
:100C40000E947605C60162E047E155E50E947605FF
:100C5000C60164E049EC5CE90E947605C60165E0E6
:100C600047E456E60E947605F601408150E04F7752
:100C700050704E295F29C60167E00E947605C601C3
:100C800068E040E95CE60E947605C60169E040E262
:100C900059E10E947605C6016BE048E050E00E94F1
:100CA0007605C6016DE040E858E40E947605C6016D
:100CB00066E14FEF50E00E947605C60167E147E02C
:100CC00050E80E947605C60168E147E650E00E94C0
:100CD0007605C6016AE140EE59E10E947605C6013B
:100CE00061E240EF53E60E947605C60162E240E011
:100CF00050E30E947605C60163E241E853E00E949A
:100D00007605D8014D915C91C60164E20E9476059A
:100D1000F80142815381C60165E20E947605D8013F
:100D200014964D915C911597C60166E20E94760576
:100D3000F80146815781C60167E20E947605C60127
:100D400068E247E450E20E947605C60169E240E0AD
:100D500058EF0E947605C6016AE24FEF5DEF0E94F0
:100D600076050F90DF91CF911F910F91FF90EF903B
:100D7000DF90CF9008950F931F93CF93DF930F923F
:100D8000CDB7DEB78C01289849830E944005C80181
:100D90004981642F0E944005289A0F90DF91CF91DE
:100DA0001F910F910895EF92FF920F931F93CF938E
:100DB000DF938C01F62EE42EC62FD72F05C0499164
:100DC000C80162E30E94BB068C2F8F198E15B8F301
:100DD000F801408150E04F7750705160C80167E0E2
:100DE0000E947605DF91CF911F910F91FF90EF90B8
:100DF0000895CF93DF93CDB7DEB728970FB6F89459
:100E0000DEBF0FBECDBF8E010E5F1F4F87E0D80142
:100E10001D928A95E9F780E88093610081E08093D4
:100E200061007E010894E11CF11CC7016AE040E00A
:100E300051E020E031E00E94EC050E9499010E94FF
:100E40002F010E9450020E945D02D02E012F1E2D04
:100E5000EF2C8D2D902F0E94AA010E9487028823DB
:100E600021F08D2D902F0E948A02812F9E2D6D2DB5
:100E7000702F47E00E94D3068FE798E3A1E08150EE
:100E80009040A040E1F700C00000E3CFF894FFCF0E
:0A0E90006F7061746F7473650100E8
:00000001FF
