S015000073656E696F722070726F6A65742E73726563CB
S11300000C94EE000C940B010C940B010C940B015A
S11300100C940B010C940B010C940B010C940B012C
S11300200C940B010C940B010C9409020C946F02B8
S11300300C940B010C940B010C940B010C940B010C
S11300400C940B010C940B010C940B010C940B01FC
S11300500C940B010C940B010C940B010C940B01EC
S11300600C940B010C940B010C940B010C940B01DC
S11300700C940B010C940B010C940B010C940B01CC
S11300800C940B010C940B010C940B010C940B01BC
S11300900C940B010C940B010C940B010C940B01AC
S11300A00C940B010C940B010C940B010001000047
S11300B0E3001200020000F50022002200001701F4
S11300C04600210000070109000300005D0104014E
S11300D003090487010A02030904B101180000019D
S11300E0C106001201000200000020C0167E0400B8
S11300F0010102000109022200010100C0320904C9
S11301000000010301010009211101000122460040
S11301100705830304000105010904A10115002555
S1130120017501950C050919012910810215002595
S1130130073500463B01750495016514050109392D
S1130140814205010901A100150026FF00750895EB
S11301500409300931093209358102C0C004030998
S11301600400000000000000000000000000000087
S1130170000000000000000000000000000000007B
S1130180000000000000000A036E0075006C006CA3
S1130190000000000000000000000000000000005B
S11301A0000000000000000000000000000000004B
S11301B00018035500530042002000470061006D01
S11301C00065007000610064000000000000000091
S11301D000000000000000000000000011241FBE09
S11301E0CFEFDAE0DEBFCDBF11E0A0E0B1E0EAEF8F
S11301F0FAE002C005900D92AA30B107D9F711E0D8
S1130200AAE0B1E001C01D92AB30B107E1F70E9452
S113021019050C947B050C94000080E880937A0007
S11302200895EAE7F0E080818F77808308958066FF
S113023080937C0080917A00806480937A0010928D
S11302407B0080917A0086FDFCCF8091790008952F
S113025080E00E941701089581E00E94170108952B
S113026084E00E941701089585E00E941701089513
S113027083E380937E0085B1806F85B988B1806CFB
S113028088B98FE78BB9729A81B3806C81BB08956A
S1130290CF93DF93EC0187E0888319821A82379920
S11302A002C080E88983629903C08981806489835C
S11302B07F9903C08981806289837E9903C0898183
S11302C080618983499903C08981886089831E99E3
S11302D003C08981846089834A9903C089818260CB
S11302E08983369903C08981816089831C9902C0FE
S11302F080E88A831D9903C08A8180648A831F9958
S113030003C08A8180628A8389B180FD03C08A81A7
S113031080618A834B9903C08A8188608A834D995E
S113032003C08A8184608A834C9903C08A81826075
S11303308A834E9903C08A8181608A830E9428013E
S11303408B830E942C018C830E9430018D830E9438
S113035034018E83DF91CF91089508958091E80050
S113036080FFFCCF089581E08093D70080EA8093DA
S1130370D80082E189BD89B580FFFDCF80E98093F3
S1130380D8001092E00010920A0188E08093E20005
S11303907894089580910A010895FC0180910A01DE
S11303A0882399F18FB7F89493E09093E9009091A2
S11303B0E4009E5C23E03091E80035FD0EC08FBF61
S11303C080910A01882309F18091E4008917F9F0EA
S11303D08FB7F8942093E900EECF91819093F100C8
S11303E092819093F10093819093F1009481909382
S11303F0F10095819093F10096819093F1009AE336
S11304009093E8008FBF80E008958FEF08958FEFF9
S113041008951F920F920FB60F9211242F933F93BA
S11304204F935F936F937F938F939F93AF93BF93F8
S1130430EF93FF938091E1001092E100882389F00B
S113044083FF0FC01092E90081E08093EB001092CB
S1130450EC0082E28093ED0088E08093F00010923B
S11304600A018091DA00882349F18091D90080FF44
S11304701CC00E94B3018FEF99E6A8E1815090401F
S1130480A040E1F700C0000080910A01882351F4E4
S11304908091D80090EA89278093D80089B592E0AA
S11304A0892789BD6E9A769A07C08DB190E4892711
S11304B08DB98EB189278EB91092DA00FF91EF9130
S11304C0BF91AF919F918F917F916F915F914F9168
S11304D03F912F910F900FBE0F901F9018951F9270
S11304E00F920FB60F921124EF92FF920F931F9366
S11304F02F933F934F935F936F937F938F939F9328
S1130500AF93BF93EF93FF93CF93DF930F92CDB746
S1130510DEB71092E9008091E80083FF13C12091B7
S1130520F1003091F100E090F100FF244091F100DE
S1130530942F80E0E82AF92A0091F10010E040911C
S1130540F100942F80E0082B192B6091F100A09109
S1130550F10082EF8093E800363009F052C047E0A2
S11305602CEA30E0F901859194918E159F0539F4B8
S1130570F9013296859194918017910729F0295FAA
S11305803F4F415079F7DEC0F9013496859194913B
S1130590AC012A5F3F4FF901249170E09A2F80E06B
S11305A0682B792B6F3F710519F010F06FEF70E035
S11305B0621708F4262FAEEF8091E80090E0BC01AA
S11305C06570707061157105B9F382FDBEC0322F7C
S11305D0213208F030E2CA01632F06C0FC01019603
S11305E0E491E093F10061506623C1F7430F511D7C
S11305F0231BA093E8002223F9F6303209F0A5C0AA
S1130600DBCF353051F48EEF8093E8000E94AE01C9
S11306108E2D80688093E30098C0393049F52223F9
S113062009F06BC0E0920A018EEF8093E80041E08C
S11306308DED90E001C0C9014093E9009C012F5F5A
S11306403F4FFC0154915093EB00552361F0F901A5
S113065024912093EC009C012D5F3F4F0296FC01F6
S113066084918093ED004F5F453029F78EE140C0BF
S1130670383041F4203809F040C00E94AE01809126
S11306800A0153C03323A1F429830E94AE012981B6
S1130690223851F40093E9009091EB0081E095FF3A
S11306A080E01092E90001C080E08093F10034C042
S11306B0313011F0333009F52230F9F4E114F1044A
S11306C0E1F4402F4F77842F81508430B0F48EEFC3
S11306D08093E8004093E9003330A1F189E18093ED
S11306E0EB0081E090E002C0880F991F4A95E2F781
S11306F08093EA001092EA0028C00115110511F553
S1130700213AB1F4313059F40E94AE011092F10053
S11307101092F1001092F1001092F1000FC03330EA
S113072089F40E94AE01809108018093F10006C013
S1130730213241F43B3031F4E09208018EEF809392
S1130740E80003C081E28093EB000F90DF91CF912A
S1130750FF91EF91BF91AF919F918F917F916F9195
S11307605F914F913F912F911F910F91FF90EF90C7
S11307700F900FBE0F901F90189580E0089584B1DC
S1130780876084B984E58CBD81E08DBD08956EBD1C
S11307900DB407FEFDCF8EB508950F931F93CF932D
S11307A0DF93EC01289860680E94C703CE0160E0E3
S11307B00E94C703182F00E0CE0160E00E94C70327
S11307C090E0802B912BDF91CF911F910F91089591
S11307D0CF93DF93EC01289860680E94C703CE0191
S11307E060E00E94C703DF91CF91089560E30E9407
S11307F0E803807808950F931F93CF93DF9300D07D
S1130800CDB7DEB78C0128984A8359830E94C70369
S1130810C8015981652F0E94C703C8014A81642F0A
S11308200E94C703289A0F900F90DF91CF911F91D8
S11308300F910895CF92DF92EF92FF920F931F933F
S1130840CF93DF930F92CDB7DEB76C018A017901A4
S113085069830E94BF036981F60160838FE39CE989
S11308600197F1F700C00000579A5F989AE19A95B2
S1130870F1F700C05798EFE6F7E13197F1F700C0C0
S11308800000C6016BE140E052E40E94FB03C60194
S113089060E041EE5FE60E94FB03C60162E047E1CF
S11308A055E50E94FB03C60164E049EC5CE90E9443
S11308B0FB03C60165E047E456E60E94FB03F6012C
S11308C0408150E04F7750704E295F29C60167E0A0
S11308D00E94FB03C60168E040E95CE60E94FB035A
S11308E0C60169E040E259E10E94FB03C6016BE0E6
S11308F048E050E00E94FB03C6016DE040E858E484
S11309000E94FB03C60166E14FEF50E00E94FB0327
S1130910C60167E147E050E80E94FB03C60168E1B5
S113092047E650E00E94FB03C6016AE140EE59E14C
S11309300E94FB03C60161E240EF53E60E94FB0301
S1130940C60162E240E050E30E94FB03C60163E299
S113095041E853E00E94FB03F80140815181C60144
S113096064E20E94FB03F80142815381C60165E2FF
S11309700E94FB03F80144815581C60166E20E948E
S1130980FB03F80146815781C60167E20E94FB031D
S1130990C60168E247E450E20E94FB03C60169E233
S11309A040E058EB0E94FB03C6016AE24FEF5DEFA3
S11309B00E94FB030F90DF91CF911F910F91FF9045
S11309C0EF90DF90CF9008950F931F93CF93DF9311
S11309D00F92CDB7DEB78C01289849830E94C703D4
S11309E0C8014981642F0E94C703289A0F90DF91A0
S11309F0CF911F910F910895EF92FF920F931F9340
S1130A00CF93DF938C01FB01E080F62EC62FD72F06
S1130A1005C04991C80162E30E94E4048C2F8F1938
S1130A208E15B8F3DF91CF911F910F91FF90EF9046
S1130A300895CF93DF93CDB7DEB760970FB6F894E0
S1130A40DEBF0FBECDBFFE01329687E0DF011D92EF
S1130A508A95E9F7DE011996E0E0F1E088E001907B
S1130A600D928150E1F780E88093610081E08093EA
S1130A7061000E940D018091D80081608093D800AC
S1130A800E94B3018FEF99E6A8E181509040A04005
S1130A90E1F700C000000E94CA018091D80091EAE9
S1130AA089278093D80089B592E0892789BD0E945F
S1130AB038018E010F5F1F4FC8016EE1AE01475F21
S1130AC05F4F20E031E00E941A04F02E012FCE0186
S1130AD002960E9448018F2D902FBE016E5F7F4FBA
S1130AE00E94FC040E94CA01882389F3CE01029665
S10D0AF00E94CD01ECCFF894FFCF73
S10D0AFA6F7061746F74736501007E
S9030000FC
