S00B00006361722E73726563E3
S11300000C9410010C942D010C942D010C942D01D1
S11300100C942D010C942D010C942D010C942D01A4
S11300200C942D010C942D010C94E5020C942403E2
S11300300C942D010C942D010C942D010C942D0184
S11300400C942D010C942D010C942D010C942D0174
S11300500C942D010C942D010C942D010C942D0164
S11300600C942D010C942D010C942D010C942D0154
S11300700C942D010C942D010C942D010C942D0144
S11300800C942D010C942D010C942D010C942D0134
S11300900C942D010C942D010C942D010C942D0124
S11300A00C942D010C942D010C942D0100010000E1
S11300B0F300120002000005013B00220000400191
S11300C04C00210000170109002201008C011500D9
S11300D021010030010900030000A101040103090A
S11300E004CB010A02030904F50112000001C10650
S11300F001C1261201000200000020C016530400B2
S1130100010102000109023B00020100C03209049E
S113011000000103010100092111010001224C002A
S1130120070583030800010904010001030000001E
S11301300921110100012215000705840320000193
S113014005010904A101150025017501950C050996
S11301501901290C810295017508810315002507F1
S11301603500463B01750495016514050109398183
S11301704205010901A100150026FF007508950438
S113018009300931093209358102C0C00631FF093D
S113019074A1537508150026FF0095200975810286
S11301A0C004030904000000000000000000000077
S11301B0000000000000000000000000000000003B
S11301C000000000000000000000000A036E00753B
S11301D0006C006C00000000000000000000000043
S11301E0000000000000000000000000000000000B
S11301F00000000000120355005300420020007864
S1130200006300760072000000000000000000009F
S113021000000000000000000000000000000000DA
S113022011241FBECFEFDAE0DEBFCDBF11E0A0E0A6
S1130230B1E0E0E5FDE002C005900D92AA30B107FF
S1130240D9F711E0AAE0B1E001C01D92AD30B107C9
S1130250E1F70E945B060C94A6060C94000081EA68
S11302608093640081E08093650085B7806885BFD2
S113027085B7806885BF089580E784B980EC87B925
S113028080ED8AB9089580E066E00E94DE018BB1BA
S11302908F7A8BB95F982C980895CF93C82F8337A2
S11302A020F480E88C1B60E009C080E060E0CD3879
S11302B028F00E94DE018C2F805803C00E94DE01CA
S11302C080E061E00E94DE01CF910895CF93C82FB2
S11302D0833720F480E88C1B62E009C080E062E090
S11302E0CD3828F00E94DE018C2F805803C00E9474
S11302F0DE0180E063E00E94DE01CF9108959BB1AE
S11303009F7A9BB95F982C9887FD5C9A86FD5F9ACB
S113031085FD5E9A84FD2C9A08951F93CF93DF93F5
S1130320EC01FE0121961491112349F01A3019F4BD
S11303308DE00E948802812F0E948802F2CFDF9113
S1130340CF911F9108958A3010F490E301C097E390
S1130350890F0E9488020895CF93C82F82958F70C9
S11303600E94A3018C2F8F700E94A301CF91089546
S1130370CF93C82F892F0E94AC018C2F0E94AC010F
S1130380CF9108959FB7F89483EA8093800081E029
S11303908093810023E8209390008093910022E8C9
S11303A02093C0008093C1008093C30083E08093B6
S11303B0BF008FEF8093D1009FBF08957FB7F8945B
S11303C0482F50E09A01220F331FF3E0440F551FCA
S11303D0FA95E1F7240F351FC90124E08030920714
S11303E014F08FEF93E0613039F0613000F1623046
S11303F041F0633081F40AC090939900809398008F
S11304001EC090938B0080938A0019C0909389003A
S11304108093880014C090938900809388009093FF
S11304208B0080938A009093990080939800292FE1
S1130430332727FD3A952093BF008093CF007FBFD9
S113044008958091E80080FFFCCF089581E08093B7
S1130450D70080EA8093D80082E189BD89B580FF06
S1130460FDCF80E98093D8001092E00010920B0138
S11304708CE08093E2007894089580910B010895B4
S1130480FC0180910B01882309F43EC02FB7F89436
S113049083E08093E9008091E4008E5C93E03091E6
S11304A0E80035FD0EC02FBF20910B01222361F11E
S11304B02091E400281751F12FB7F8949093E900A4
S11304C0EECF81818093F100828182958F70809339
S11304D0F100828190E034E0880F991F3A95E1F7AA
S11304E08093F10083818093F10084818093F100F3
S11304F085818093F10086818093F1008AE3809363
S1130500E8002FBF80E008958FEF08958FEF0895DE
S113051090910B01992309F43DC09FB7F89424E00E
S11305202093E90020910C01222341F02091E8005E
S113053025FD02C09FBF2EC010920C012091E40043
S11305402C5F34E04091E80045FD12C09FBF9091BC
S1130550E400921721F481E080930C011BC0909178
S11305600B019923C9F09FB7F8943093E900EACFBF
S11305708093F1008091E80085FD06C08AE38093B2
S1130580E80010920A0103C082E080930A019FBF31
S113059080E008958FEF08958FEF08958FB7F89452
S11305A090910A01992379F094E09093E90002C0B4
S11305B01092F1009091E80095FDFACF9AE39093A0
S11305C0E80010920A018FBF08951F920F920FB690
S11305D00F9211248F939F938091E1001092E10078
S11305E083FF0FC01092E90091E09093EB0010920A
S11305F0EC0092E29093ED0098E09093F00010925A
S11306000B0182FF1AC080910B018823B1F0809105
S11306100A01882391F0815080930A01882369F4A8
S113062084E08093E90002C01092F1008091E80018
S113063085FDFACF8AE38093E8009F918F910F9014
S11306400FBE0F901F9018951F920F920FB60F9226
S11306501124EF92FF920F931F932F933F934F9385
S11306605F936F937F938F939F93AF93BF93EF9316
S1130670FF93CF93DF930F92CDB7DEB71092E900CB
S11306808091E80083FF3BC12091F1003091F1009B
S11306900091F10010E04091F100942F80E0082BCC
S11306A0192BE090F100FF244091F100942F80E099
S11306B0E82AF92A6091F10070E04091F100942F4A
S11306C080E0682B792B82EF8093E800363009F0C4
S11306D04EC049E02CEA30E0F901859194918017ED
S11306E0910739F4F9013296859194918E159F05FD
S11306F029F0295F3F4F415079F701C1F901349640
S113070045915491CA012A5F3F4FF90124916F3FEB
S1130710710519F010F06FEF70E0621708F4262FDE
S1130720AEEF4091E80050E0BA0165707070611559
S11307307105B9F342FDE6C0322F213208F030E2F0
S1130740AC01632F07C0FA014F5F5F4FE491E09360
S1130750F10061506623B9F7830F911D231BA09309
S1130760E8002223F1F6303209F0CCC0DACF35307C
S113077049F48EEF8093E8000E9421020068009300
S1130780E300C0C0393049F5222309F06CC000935E
S11307900B018EEF8093E80041E08BEE90E001C006
S11307A0C9014093E9009C012F5F3F4FFC01549124
S11307B05093EB00552361F0F90124912093EC0050
S11307C09C012D5F3F4F0296FC0184918093ED00C4
S11307D04F5F453029F78EE141C0383041F420386D
S11307E009F041C00E94210280910B0154C03323BF
S11307F0A1F429830E9421022981223851F4E09234
S1130800E9009091EB0081E095FF80E01092E9000F
S113081001C080E08093F10035C0313011F03330F5
S113082011F5223001F501151105E9F44E2D4F772C
S1130830842F81508430B8F48EEF8093E800409385
S1130840E900333009F45BC089E18093EB0081E077
S113085090E002C0880F991F4A95E2F78093EA005E
S11308601092EA004FC0E114F10411F5213AB1F4F9
S1130870313059F40E9421021092F1001092F100DB
S11308801092F1001092F1000FC03330C1F50E94B4
S11308902102809108018093F10006C0213279F58C
S11308A03B3069F5009308018EEF8093E8002AC07D
S11308B0F1E0EF16F10419F5313009F5213AF9F4B4
S11308C04EEF8091E80090E09C0125703070211576
S11308D03105B9F382FD16C0862F613208F080E23B
S11308E0982F03C01092F10091509923D9F7681BF7
S11308F04093E800662329F7803221F4E2CF81E2B5
S11309008093EB000F90DF91CF91FF91EF91BF9116
S1130910AF919F918F917F916F915F914F913F9193
S11309202F911F910F91FF90EF900F900FBE0F909A
S11309301F90189584B1876084B984E58CBD81E0EB
S11309408DBD08956EBD0DB407FEFDCF8EB508951F
S11309500F931F93CF93DF93EC01289860680E9454
S1130960A204CE0160E00E94A204182F00E0CE0190
S113097060E00E94A204289A90E0802B912BDF91E2
S1130980CF911F910F91089560E30E94A804807491
S11309900895CF93DF93EC01289860680E94A20425
S11309A0CE0160E00E94A204289ADF91CF910895BD
S11309B00F931F93CF93DF9300D0CDB7DEB78C0195
S11309C028984A8359830E94A204C8015981652F3B
S11309D00E94A204C8014A81642F0E94A204289A9A
S11309E00F900F90DF91CF911F910F910895AF92C7
S11309F0BF92CF92DF92EF92FF920F931F93CF9308
S1130A00DF930F92CDB7DEB78C01F62EE72EFC01F3
S1130A10408150E0406867E00E94D80420E2C22E82
S1130A202EE4D22EC8010E94C404882381F50894C0
S1130A30C108D108C114D10451F1F4CFC80164E351
S1130A400E94C904282F2F73CF2CDE2CEE24FF2400
S1130A50A22EBB240CC0C80162E329830E94C904EE
S1130A60F60181936F010894E11CF11C2981EA14B9
S1130A70FB048CF3822F0F90DF91CF911F910F9184
S1130A80FF90EF90DF90CF90BF90AF900895C80192
S1130A900E94C404882391F620E0ECCFCF92DF9229
S1130AA0EF92FF920F931F93CF93DF930F92CDB7E3
S1130AB0DEB76C018A01790169830E949A04698115
S1130AC0D6016C938FE79AE1A6E081509040A04054
S1130AD0E1F700C00000279A2F989AE69A95F1F75B
S1130AE000C02798AFE3BFE11197F1F700C0000001
S1130AF0C6016BE140E052E40E94D804C60160E004
S1130B0041EE5FE60E94D804C60162E047E155E584
S1130B100E94D804C60164E049EC5CE90E94D80450
S1130B20C60165E047E456E60E94D804F601408118
S1130B3050E04F7750704E295F29C60167E00E944C
S1130B40D804C60168E040E95CE60E94D804C60106
S1130B5069E040E259E10E94D804C6016BE048E034
S1130B6050E00E94D804C6016DE040E858E40E94B9
S1130B70D804C60166E14FEF50E00E94D804C601D4
S1130B8067E147E050E80E94D804C60168E147E6FF
S1130B9050E00E94D804C6016AE140EE59E10E9487
S1130BA0D804C60161E240EF53E60E94D804C601AE
S1130BB062E240E050E30E94D804C60163E241E8E7
S1130BC053E00E94D804D8014D915C91C60164E2BF
S1130BD00E94D804F80142815381C60165E20E9453
S1130BE0D804D80114964D915C911597C60166E21C
S1130BF00E94D804F80146815781C60167E20E9429
S1130C00D804C60168E247E450E20E94D804C60151
S1130C1069E240E058EF0E94D804C6016AE24FEF4F
S1130C205DEF0E94D8040F90DF91CF911F910F9137
S1130C30FF90EF90DF90CF9008950F931F93CF9381
S1130C40DF930F92CDB7DEB78C01289849830E94B9
S1130C50A204C8014981642F0E94A204289A0F901B
S1130C60DF91CF911F910F910895EF92FF920F930F
S1130C701F93CF93DF938C01F62EE42EC62FD72F2C
S1130C8005C04991C80162E30E941D068C2F8F198B
S1130C908E15B8F3F801408150E04F7750705160E1
S1130CA0C80167E00E94D804DF91CF911F910F9192
S1130CB0FF90EF900895CF93DF93CDB7DEB7C05484
S1130CC0D0400FB6F894DEBF0FBECDBF8E010E5FCD
S1130CD01F4F8FE3F80111928A95E9F780E880931A
S1130CE0610081E0809361000E942F010E94C20193
S1130CF00E943C017E010894E11CF11CC7016AE0DA
S1130D0040E051E020E830E00E944E05DD24C02E92
S1130D100F2D8E2D902F6C2D712F0E94F704882398
S1130D2051F08E810E944D0188850E9466018B815D
S1130D300E947F0105C0F3E1FD1510F0D394E9CFC3
S1130D4084E18D1530F70E944301E3CFF894FFCF7F
S10D0D506F7061746F747365010025
S9030000FC
